{
  "contractName": "ThankYouNote",
  "abi": [
    {
      "constant": false,
      "inputs": [],
      "name": "renounceOwnership",
      "outputs": [],
      "payable": false,
      "stateMutability": "nonpayable",
      "type": "function"
    },
    {
      "constant": true,
      "inputs": [],
      "name": "owner",
      "outputs": [
        {
          "name": "",
          "type": "address"
        }
      ],
      "payable": false,
      "stateMutability": "view",
      "type": "function"
    },
    {
      "constant": true,
      "inputs": [],
      "name": "isOwner",
      "outputs": [
        {
          "name": "",
          "type": "bool"
        }
      ],
      "payable": false,
      "stateMutability": "view",
      "type": "function"
    },
    {
      "constant": false,
      "inputs": [
        {
          "name": "newOwner",
          "type": "address"
        }
      ],
      "name": "transferOwnership",
      "outputs": [],
      "payable": false,
      "stateMutability": "nonpayable",
      "type": "function"
    },
    {
      "inputs": [
        {
          "name": "thankYouNoteToken",
          "type": "address"
        },
        {
          "name": "decimals",
          "type": "uint8"
        }
      ],
      "payable": false,
      "stateMutability": "nonpayable",
      "type": "constructor"
    },
    {
      "anonymous": false,
      "inputs": [
        {
          "indexed": true,
          "name": "date",
          "type": "uint256"
        },
        {
          "indexed": false,
          "name": "domain",
          "type": "string"
        },
        {
          "indexed": false,
          "name": "from",
          "type": "string"
        },
        {
          "indexed": false,
          "name": "to",
          "type": "string"
        },
        {
          "indexed": false,
          "name": "messageHash",
          "type": "string"
        },
        {
          "indexed": false,
          "name": "qty",
          "type": "uint256"
        }
      ],
      "name": "Thanks",
      "type": "event"
    },
    {
      "anonymous": false,
      "inputs": [
        {
          "indexed": true,
          "name": "date",
          "type": "uint256"
        },
        {
          "indexed": false,
          "name": "domain",
          "type": "string"
        },
        {
          "indexed": false,
          "name": "userName",
          "type": "string"
        }
      ],
      "name": "AddUser",
      "type": "event"
    },
    {
      "anonymous": false,
      "inputs": [
        {
          "indexed": true,
          "name": "date",
          "type": "uint256"
        },
        {
          "indexed": false,
          "name": "userName",
          "type": "string"
        }
      ],
      "name": "ClaimTokens",
      "type": "event"
    },
    {
      "anonymous": false,
      "inputs": [
        {
          "indexed": true,
          "name": "previousOwner",
          "type": "address"
        },
        {
          "indexed": true,
          "name": "newOwner",
          "type": "address"
        }
      ],
      "name": "OwnershipTransferred",
      "type": "event"
    },
    {
      "constant": true,
      "inputs": [],
      "name": "totalSupply",
      "outputs": [
        {
          "name": "",
          "type": "uint256"
        }
      ],
      "payable": false,
      "stateMutability": "view",
      "type": "function"
    },
    {
      "constant": true,
      "inputs": [
        {
          "name": "owner",
          "type": "string"
        }
      ],
      "name": "balanceOf",
      "outputs": [
        {
          "name": "",
          "type": "uint256"
        },
        {
          "name": "",
          "type": "uint256"
        }
      ],
      "payable": false,
      "stateMutability": "view",
      "type": "function"
    },
    {
      "constant": false,
      "inputs": [
        {
          "name": "date",
          "type": "uint256"
        },
        {
          "name": "domain",
          "type": "string"
        },
        {
          "name": "from",
          "type": "string"
        },
        {
          "name": "to",
          "type": "string"
        },
        {
          "name": "messageHash",
          "type": "string"
        },
        {
          "name": "qty",
          "type": "uint256"
        }
      ],
      "name": "thanks",
      "outputs": [],
      "payable": false,
      "stateMutability": "nonpayable",
      "type": "function"
    },
    {
      "constant": false,
      "inputs": [
        {
          "name": "date",
          "type": "uint256"
        },
        {
          "name": "userName",
          "type": "string"
        }
      ],
      "name": "claimTokens",
      "outputs": [],
      "payable": false,
      "stateMutability": "nonpayable",
      "type": "function"
    },
    {
      "constant": false,
      "inputs": [
        {
          "name": "userName",
          "type": "string"
        }
      ],
      "name": "registerToClaim",
      "outputs": [],
      "payable": false,
      "stateMutability": "nonpayable",
      "type": "function"
    },
    {
      "constant": false,
      "inputs": [],
      "name": "reset",
      "outputs": [],
      "payable": false,
      "stateMutability": "nonpayable",
      "type": "function"
    },
    {
      "constant": true,
      "inputs": [],
      "name": "decimals",
      "outputs": [
        {
          "name": "",
          "type": "uint8"
        }
      ],
      "payable": false,
      "stateMutability": "view",
      "type": "function"
    }
  ],
  "bytecode": "0x608060405234801561001057600080fd5b506040516040806116788339810180604052810190808051906020019092919080519060200190929190505050336000806101000a81548173ffffffffffffffffffffffffffffffffffffffff021916908373ffffffffffffffffffffffffffffffffffffffff1602179055506000809054906101000a900473ffffffffffffffffffffffffffffffffffffffff1673ffffffffffffffffffffffffffffffffffffffff16600073ffffffffffffffffffffffffffffffffffffffff167f8be0079c531659141344cd1fd0a4f28419497f9722a3daafe3b4186f6b6457e060405160405180910390a381600660016101000a81548173ffffffffffffffffffffffffffffffffffffffff021916908373ffffffffffffffffffffffffffffffffffffffff16021790555080600660006101000a81548160ff021916908360ff1602179055505050611512806101666000396000f3006080604052600436106100af576000357c0100000000000000000000000000000000000000000000000000000000900463ffffffff16806318160ddd146100b4578063190d3499146100df578063313ce5671461012457806335ee5f8714610155578063715018a6146101d95780638da5cb5b146101f05780638f32d59b14610247578063ab0c1c6614610276578063d826f88f1461030d578063f2fde38b14610324578063fe95500314610367575b600080fd5b3480156100c057600080fd5b506100c96103a2565b6040518082815260200191505060405180910390f35b3480156100eb57600080fd5b50610122600480360381019080803590602001909291908035906020019082018035906020019190919293919293905050506103ac565b005b34801561013057600080fd5b50610139610731565b604051808260ff1660ff16815260200191505060405180910390f35b34801561016157600080fd5b506101bc600480360381019080803590602001908201803590602001908080601f0160208091040260200160405190810160405280939291908181526020018383808284378201915050505050509192919290505050610748565b604051808381526020018281526020019250505060405180910390f35b3480156101e557600080fd5b506101ee610832565b005b3480156101fc57600080fd5b50610205610904565b604051808273ffffffffffffffffffffffffffffffffffffffff1673ffffffffffffffffffffffffffffffffffffffff16815260200191505060405180910390f35b34801561025357600080fd5b5061025c61092d565b604051808215151515815260200191505060405180910390f35b34801561028257600080fd5b5061030b6004803603810190808035906020019092919080359060200190820180359060200191909192939192939080359060200190820180359060200191909192939192939080359060200190820180359060200191909192939192939080359060200190820180359060200191909192939192939080359060200190929190505050610984565b005b34801561031957600080fd5b50610322610cca565b005b34801561033057600080fd5b50610365600480360381019080803573ffffffffffffffffffffffffffffffffffffffff169060200190929190505050610e32565b005b34801561037357600080fd5b506103a0600480360381019080803590602001908201803590602001919091929391929390505050610e51565b005b6000600554905090565b81818080601f016020809104026020016040519081016040528093929190818152602001838380828437820191505050505050600073ffffffffffffffffffffffffffffffffffffffff166003826040518082805190602001908083835b60208310151561042f578051825260208201915060208101905060208303925061040a565b6001836020036101000a038019825116818451168082178552505050505050905001915050908152602001604051809103902060009054906101000a900473ffffffffffffffffffffffffffffffffffffffff1673ffffffffffffffffffffffffffffffffffffffff161415151561050f576040517f08c379a00000000000000000000000000000000000000000000000000000000081526004018080602001828103825260178152602001807f757365724e616d65206e6f74207265676973746572656400000000000000000081525060200191505060405180910390fd5b600660019054906101000a900473ffffffffffffffffffffffffffffffffffffffff1673ffffffffffffffffffffffffffffffffffffffff166340c10f196003858560405180838380828437820191505092505050908152602001604051809103902060009054906101000a900473ffffffffffffffffffffffffffffffffffffffff1660018686604051808383808284378201915050925050509081526020016040518091039020600101546040518363ffffffff167c0100000000000000000000000000000000000000000000000000000000028152600401808373ffffffffffffffffffffffffffffffffffffffff1673ffffffffffffffffffffffffffffffffffffffff16815260200182815260200192505050602060405180830381600087803b15801561064157600080fd5b505af1158015610655573d6000803e3d6000fd5b505050506040513d602081101561066b57600080fd5b8101908080519060200190929190505050506000600184846040518083838082843782019150509250505090815260200160405180910390206001018190555060006001848460405180838380828437820191505092505050908152602001604051809103902060000181905550837f8605d3c53bcea6d3916cdd9755ac8043258ee47e259fdb93b2916ba105746e228484604051808060200182810382528484828181526020019250808284378201915050935050505060405180910390a250505050565b6000600660009054906101000a900460ff16905090565b6000806001836040518082805190602001908083835b602083101515610783578051825260208201915060208101905060208303925061075e565b6001836020036101000a0380198251168184511680821785525050505050509050019150509081526020016040518091039020600001546001846040518082805190602001908083835b6020831015156107f257805182526020820191506020810190506020830392506107cd565b6001836020036101000a03801982511681845116808217855250505050505090500191505090815260200160405180910390206001015491509150915091565b61083a61092d565b151561084557600080fd5b600073ffffffffffffffffffffffffffffffffffffffff166000809054906101000a900473ffffffffffffffffffffffffffffffffffffffff1673ffffffffffffffffffffffffffffffffffffffff167f8be0079c531659141344cd1fd0a4f28419497f9722a3daafe3b4186f6b6457e060405160405180910390a360008060006101000a81548173ffffffffffffffffffffffffffffffffffffffff021916908373ffffffffffffffffffffffffffffffffffffffff160217905550565b60008060009054906101000a900473ffffffffffffffffffffffffffffffffffffffff16905090565b60008060009054906101000a900473ffffffffffffffffffffffffffffffffffffffff1673ffffffffffffffffffffffffffffffffffffffff163373ffffffffffffffffffffffffffffffffffffffff1614905090565b6109f287878080601f01602080910402602001604051908101604052809392919081815260200183838082843782019150505050505086868080601f01602080910402602001604051908101604052809392919081815260200183838082843782019150505050505061101c565b151515610a67576040517f08c379a000000000000000000000000000000000000000000000000000000000815260040180806020018281038252600a8152602001807f66726f6d203d3d20746f0000000000000000000000000000000000000000000081525060200191505060405180910390fd5b610ad68a8a8a8080601f01602080910402602001604051908101604052809392919081815260200183838082843782019150505050505089898080601f0160208091040260200160405190810160405280939291908181526020018383808284378201915050505050506110f5565b610b458a8a8a8080601f01602080910402602001604051908101604052809392919081815260200183838082843782019150505050505087878080601f0160208091040260200160405190810160405280939291908181526020018383808284378201915050505050506110f5565b8060018888604051808383808284378201915050925050509081526020016040518091039020600001540160018888604051808383808284378201915050925050509081526020016040518091039020600001819055508060018686604051808383808284378201915050925050509081526020016040518091039020600101540160018686604051808383808284378201915050925050509081526020016040518091039020600101819055508060055401600581905550897f75cedeffae8edd0d51cc2fb752b079d4176241ac01b8794edf0dbcb31570ca568a8a8a8a8a8a8a8a8a604051808060200180602001806020018060200186815260200185810385528e8e82818152602001925080828437820191505085810384528c8c82818152602001925080828437820191505085810383528a8a828181526020019250808284378201915050858103825288888281815260200192508082843782019150509d505050505050505050505050505060405180910390a250505050505050505050565b600080610cd561092d565b1515610ce057600080fd5b6004805490509150600090505b81811015610e265760006001600483815481101515610d0857fe5b906000526020600020016040518082805460018160011615610100020316600290048015610d6d5780601f10610d4b576101008083540402835291820191610d6d565b820191906000526020600020905b815481529060010190602001808311610d59575b505091505090815260200160405180910390206001018190555060006001600483815481101515610d9a57fe5b906000526020600020016040518082805460018160011615610100020316600290048015610dff5780601f10610ddd576101008083540402835291820191610dff565b820191906000526020600020905b815481529060010190602001808311610deb575b50509150509081526020016040518091039020600001819055508080600101915050610ced565b60006005819055505050565b610e3a61092d565b1515610e4557600080fd5b610e4e81611347565b50565b81818080601f016020809104026020016040519081016040528093929190818152602001838380828437820191505050505050600073ffffffffffffffffffffffffffffffffffffffff166003826040518082805190602001908083835b602083101515610ed45780518252602082019150602081019050602083039250610eaf565b6001836020036101000a038019825116818451168082178552505050505050905001915050908152602001604051809103902060009054906101000a900473ffffffffffffffffffffffffffffffffffffffff1673ffffffffffffffffffffffffffffffffffffffff16141515610fb3576040517f08c379a000000000000000000000000000000000000000000000000000000000815260040180806020018281038252601b8152602001807f757365724e616d6520616c72656164792072656769737465726564000000000081525060200191505060405180910390fd5b336003848460405180838380828437820191505092505050908152602001604051809103902060006101000a81548173ffffffffffffffffffffffffffffffffffffffff021916908373ffffffffffffffffffffffffffffffffffffffff160217905550505050565b6000816040518082805190602001908083835b602083101515611054578051825260208201915060208101905060208303925061102f565b6001836020036101000a038019825116818451168082178552505050505050905001915050604051809103902060001916836040518082805190602001908083835b6020831015156110bb5780518252602082019150602081019050602083039250611096565b6001836020036101000a03801982511681845116808217855250505050505090500191505060405180910390206000191614905092915050565b6002816040518082805190602001908083835b60208310151561112d5780518252602082019150602081019050602083039250611108565b6001836020036101000a038019825116818451168082178552505050505050905001915050908152602001604051809103902060009054906101000a900460ff1615156113425760016002826040518082805190602001908083835b6020831015156111ae5780518252602082019150602081019050602083039250611189565b6001836020036101000a038019825116818451168082178552505050505050905001915050908152602001604051809103902060006101000a81548160ff0219169083151502179055506004819080600181540180825580915050906001820390600052602060002001600090919290919091509080519060200190611235929190611441565b5050827f328b08b39f31f8b3e8a861373c9421400b534cafb1f9122349e1b1ff0e7514728383604051808060200180602001838103835285818151815260200191508051906020019080838360005b8381101561129f578082015181840152602081019050611284565b50505050905090810190601f1680156112cc5780820380516001836020036101000a031916815260200191505b50838103825284818151815260200191508051906020019080838360005b838110156113055780820151818401526020810190506112ea565b50505050905090810190601f1680156113325780820380516001836020036101000a031916815260200191505b5094505050505060405180910390a25b505050565b600073ffffffffffffffffffffffffffffffffffffffff168173ffffffffffffffffffffffffffffffffffffffff161415151561138357600080fd5b8073ffffffffffffffffffffffffffffffffffffffff166000809054906101000a900473ffffffffffffffffffffffffffffffffffffffff1673ffffffffffffffffffffffffffffffffffffffff167f8be0079c531659141344cd1fd0a4f28419497f9722a3daafe3b4186f6b6457e060405160405180910390a3806000806101000a81548173ffffffffffffffffffffffffffffffffffffffff021916908373ffffffffffffffffffffffffffffffffffffffff16021790555050565b828054600181600116156101000203166002900490600052602060002090601f016020900481019282601f1061148257805160ff19168380011785556114b0565b828001600101855582156114b0579182015b828111156114af578251825591602001919060010190611494565b5b5090506114bd91906114c1565b5090565b6114e391905b808211156114df5760008160009055506001016114c7565b5090565b905600a165627a7a72305820c2840f78bf0c4c2cf9f27e060d3f0ab574197177a93c929fdd51e25839b3a2db0029",
  "source": "pragma solidity ^0.4.24;\n\nimport \"openzeppelin-solidity/contracts/ownership/Ownable.sol\";\nimport \"./ThankYouNoteToken.sol\";\n\ncontract ThankYouNote is Ownable {\n\n    /* attributes section */\n\n    struct Balance {\n        uint sent;\n        uint received;\n    }\n\n    mapping (string => Balance) private _balances;\n    mapping (string => bool) private _registered;\n\n    mapping (string => address) private _claimAddresses;\n    string[] private userNames;\n\n    uint private _totalSupply;\n    uint8 private _decimals;\n\n    ThankYouNoteToken private _token;\n\n    /* events section */\n\n    event Thanks (\n        uint indexed date,\n        string domain,\n        string from,\n        string to,\n        string messageHash,\n        uint qty\n    );\n\n    event AddUser (\n        uint indexed date,\n        string domain,\n        string userName\n    );\n\n    event ClaimTokens (\n        uint indexed date,\n        string userName\n    );\n\n    /* modifiers section */\n\n    modifier notRegistered(string userName) {\n        require(_claimAddresses[userName] == address(0), \"userName already registered\");\n        _;\n    }\n\n    modifier registered(string userName) {\n        require(_claimAddresses[userName] != address(0), \"userName not registered\");\n        _;\n    }\n\n    /* public functions section */\n\n    constructor (address thankYouNoteToken, uint8 decimals) public {\n        _token = ThankYouNoteToken(thankYouNoteToken);\n        _decimals = decimals;\n    }\n\n    /**\n    * @dev Total number of tokens in existence\n    */\n    function totalSupply() public view returns (uint) {\n        return _totalSupply;\n    }\n\n    /**\n    * @dev Gets the balance of the specified user.\n    * @param owner The user to query the balance of.\n    * @return An uint representing the amount owned by the passed user.\n    */\n    function balanceOf(string owner) public view returns (uint, uint) {\n        return (_balances[owner].sent, _balances[owner].received);\n    }\n\n    /**\n    * @dev Give thanks from an user to another\n    * @param date the date in epoch format\n    * @param from The user that gives.\n    * @param to The user that receives.\n    * @param messageHash The message hash\n    * @param qty The tyn quantity\n    */\n    function thanks(uint date, string domain, string from, string to, string messageHash, uint qty) external {\n        require(!_isEqual(from, to), \"from == to\");\n        _addUser(date, domain, from);\n        _addUser(date, domain, to);\n        _balances[from].sent = _balances[from].sent + qty;\n        _balances[to].received = _balances[to].received + qty;\n        _totalSupply = _totalSupply + qty;\n        emit Thanks(date, domain, from, to, messageHash, qty);\n    }\n\n    /**\n    * @dev Claims the current received qty in form of TYN tokens\n    * @param date the date in epoch format\n    * @param userName The user that claims tokens.\n    */\n    function claimTokens(uint date, string userName) external registered(userName) {\n        _token.mint(_claimAddresses[userName], _balances[userName].received);\n        _balances[userName].received = 0;\n        _balances[userName].sent = 0;\n        emit ClaimTokens(date, userName);\n    }\n\n    /**\n    * @dev Register an user address to enable to claim tokens\n    * @param userName The user that claims tokens.\n    */\n    function registerToClaim(string userName) external notRegistered(userName) {\n        _claimAddresses[userName] = msg.sender;\n    }\n\n    /**\n    * @dev Reset all counters\n    */\n    function reset() external onlyOwner {\n        uint size = userNames.length;\n        for (uint i = 0; i < size; i++) {\n            _balances[userNames[i]].received = 0;\n            _balances[userNames[i]].sent = 0;\n        }\n        _totalSupply = 0;\n    }\n\n    /**\n    * @return the number of decimals.\n    */\n    function decimals() public view returns(uint8) {\n        return _decimals;\n    }\n\n    /* internal functions section */\n\n    /**\n    * @dev checks if two strings are equal\n    */\n    function _isEqual(string a, string b) internal pure returns (bool) {\n        return keccak256(bytes(a)) == keccak256(bytes(b));\n    }\n\n    /**\n    * @dev Creates a log if a new user is added\n    */\n    function _addUser(uint date,string domain, string userName) internal {\n        if(!_registered[userName]) {\n            _registered[userName] = true;\n            userNames.push(userName);\n            emit AddUser(date, domain, userName);\n        }\n    }\n}\n",
  "sourcePath": "/data/git/thank-you-notes/truffle/contracts/ThankYouNote.sol",
  "compiler": {
    "name": "solc",
    "version": "0.4.24+commit.e67f0147.Emscripten.clang"
  },
  "schemaVersion": "2.0.1",
  "updatedAt": "2018-10-24T07:28:53.194Z"
}